{
  "_format": "hh3-artifact-1",
  "contractName": "AccesosNFT",
  "sourceName": "contracts/accesssimple.sol",
  "abi": [
    {
      "inputs": [
        {
          "internalType": "address",
          "name": "_holder_data",
          "type": "address"
        }
      ],
      "stateMutability": "nonpayable",
      "type": "constructor"
    },
    {
      "anonymous": false,
      "inputs": [
        {
          "indexed": false,
          "internalType": "bool",
          "name": "access",
          "type": "bool"
        }
      ],
      "name": "accessPermission",
      "type": "event"
    },
    {
      "inputs": [
        {
          "internalType": "address",
          "name": "holder",
          "type": "address"
        }
      ],
      "name": "getNonce",
      "outputs": [
        {
          "internalType": "uint256",
          "name": "",
          "type": "uint256"
        }
      ],
      "stateMutability": "view",
      "type": "function"
    },
    {
      "inputs": [],
      "name": "holder_data",
      "outputs": [
        {
          "internalType": "address",
          "name": "",
          "type": "address"
        }
      ],
      "stateMutability": "view",
      "type": "function"
    },
    {
      "inputs": [
        {
          "internalType": "address",
          "name": "_verifier",
          "type": "address"
        },
        {
          "internalType": "bool",
          "name": "_access",
          "type": "bool"
        }
      ],
      "name": "modifyAccess",
      "outputs": [],
      "stateMutability": "nonpayable",
      "type": "function"
    },
    {
      "inputs": [
        {
          "components": [
            {
              "internalType": "bytes32",
              "name": "_hashCodeCert",
              "type": "bytes32"
            },
            {
              "internalType": "bytes32",
              "name": "_r",
              "type": "bytes32"
            },
            {
              "internalType": "bytes32",
              "name": "_s",
              "type": "bytes32"
            },
            {
              "internalType": "uint8",
              "name": "_v",
              "type": "uint8"
            }
          ],
          "internalType": "struct AccesosNFT.SignatureRSV",
          "name": "signed",
          "type": "tuple"
        }
      ],
      "name": "verifyAccess",
      "outputs": [
        {
          "internalType": "bool",
          "name": "",
          "type": "bool"
        }
      ],
      "stateMutability": "view",
      "type": "function"
    }
  ],
  "bytecode": "0x608060405234801561000f575f5ffd5b50604051610dd2380380610dd2833981810160405281019061003191906100d5565b8060025f6101000a81548173ffffffffffffffffffffffffffffffffffffffff021916908373ffffffffffffffffffffffffffffffffffffffff16021790555050610100565b5f5ffd5b5f73ffffffffffffffffffffffffffffffffffffffff82169050919050565b5f6100a48261007b565b9050919050565b6100b48161009a565b81146100be575f5ffd5b50565b5f815190506100cf816100ab565b92915050565b5f602082840312156100ea576100e9610077565b5b5f6100f7848285016100c1565b91505092915050565b610cc58061010d5f395ff3fe608060405234801561000f575f5ffd5b506004361061004a575f3560e01c80632d0335ab1461004e5780634ea5d2ea1461007e578063a49efc86146100ae578063ee33f1c4146100ca575b5f5ffd5b610068600480360381019061006391906106e1565b6100e8565b6040516100759190610724565b60405180910390f35b6100986004803603810190610093919061075f565b61012d565b6040516100a591906107a4565b60405180910390f35b6100c860048036038101906100c391906107e7565b6102b9565b005b6100d261036b565b6040516100df9190610834565b60405180910390f35b5f5f5f8373ffffffffffffffffffffffffffffffffffffffff1673ffffffffffffffffffffffffffffffffffffffff1681526020019081526020015f20549050919050565b5f5f6101488380360381019061014391906109b7565b610390565b90508073ffffffffffffffffffffffffffffffffffffffff163373ffffffffffffffffffffffffffffffffffffffff16146101b8576040517f08c379a00000000000000000000000000000000000000000000000000000000081526004016101af90610a62565b60405180910390fd5b6101fd5f5f8373ffffffffffffffffffffffffffffffffffffffff1673ffffffffffffffffffffffffffffffffffffffff1681526020019081526020015f205461045f565b60405160200161020d9190610ad2565b60405160208183030381529060405280519060200120835f013514610267576040517f08c379a000000000000000000000000000000000000000000000000000000000815260040161025e90610b58565b60405180910390fd5b60015f3373ffffffffffffffffffffffffffffffffffffffff1673ffffffffffffffffffffffffffffffffffffffff1681526020019081526020015f205f9054906101000a900460ff16915050919050565b3360025f9054906101000a900473ffffffffffffffffffffffffffffffffffffffff1673ffffffffffffffffffffffffffffffffffffffff168173ffffffffffffffffffffffffffffffffffffffff1614610312575f5ffd5b8160015f8573ffffffffffffffffffffffffffffffffffffffff1673ffffffffffffffffffffffffffffffffffffffff1681526020019081526020015f205f6101000a81548160ff021916908315150217905550505050565b60025f9054906101000a900473ffffffffffffffffffffffffffffffffffffffff1681565b5f5f6040518060400160405280601c81526020017f19457468657265756d205369676e6564204d6573736167653a0a33320000000081525090505f81845f01516040516020016103e1929190610bda565b6040516020818303038152906040528051906020012090505f6001828660600151876020015188604001516040515f81526020016040526040516104289493929190610c1f565b6020604051602081039080840390855afa158015610448573d5f5f3e3d5ffd5b505050602060405103519050809350505050919050565b60605f600161046d84610529565b0190505f8167ffffffffffffffff81111561048b5761048a610861565b5b6040519080825280601f01601f1916602001820160405280156104bd5781602001600182028036833780820191505090505b5090505f82602083010190505b60011561051e578080600190039150507f3031323334353637383961626364656600000000000000000000000000000000600a86061a8153600a858161051357610512610c62565b5b0494505f85036104ca575b819350505050919050565b5f5f5f90507a184f03e93ff9f4daa797ed6e38ed64bf6a1f0100000000000000008310610585577a184f03e93ff9f4daa797ed6e38ed64bf6a1f010000000000000000838161057b5761057a610c62565b5b0492506040810190505b6d04ee2d6d415b85acef810000000083106105c2576d04ee2d6d415b85acef810000000083816105b8576105b7610c62565b5b0492506020810190505b662386f26fc1000083106105f157662386f26fc1000083816105e7576105e6610c62565b5b0492506010810190505b6305f5e100831061061a576305f5e10083816106105761060f610c62565b5b0492506008810190505b612710831061063f57612710838161063557610634610c62565b5b0492506004810190505b60648310610662576064838161065857610657610c62565b5b0492506002810190505b600a8310610671576001810190505b80915050919050565b5f604051905090565b5f5ffd5b5f73ffffffffffffffffffffffffffffffffffffffff82169050919050565b5f6106b082610687565b9050919050565b6106c0816106a6565b81146106ca575f5ffd5b50565b5f813590506106db816106b7565b92915050565b5f602082840312156106f6576106f5610683565b5b5f610703848285016106cd565b91505092915050565b5f819050919050565b61071e8161070c565b82525050565b5f6020820190506107375f830184610715565b92915050565b5f5ffd5b5f608082840312156107565761075561073d565b5b81905092915050565b5f6080828403121561077457610773610683565b5b5f61078184828501610741565b91505092915050565b5f8115159050919050565b61079e8161078a565b82525050565b5f6020820190506107b75f830184610795565b92915050565b6107c68161078a565b81146107d0575f5ffd5b50565b5f813590506107e1816107bd565b92915050565b5f5f604083850312156107fd576107fc610683565b5b5f61080a858286016106cd565b925050602061081b858286016107d3565b9150509250929050565b61082e816106a6565b82525050565b5f6020820190506108475f830184610825565b92915050565b5f5ffd5b5f601f19601f8301169050919050565b7f4e487b71000000000000000000000000000000000000000000000000000000005f52604160045260245ffd5b61089782610851565b810181811067ffffffffffffffff821117156108b6576108b5610861565b5b80604052505050565b5f6108c861067a565b90506108d4828261088e565b919050565b5f819050919050565b6108eb816108d9565b81146108f5575f5ffd5b50565b5f81359050610906816108e2565b92915050565b5f60ff82169050919050565b6109218161090c565b811461092b575f5ffd5b50565b5f8135905061093c81610918565b92915050565b5f608082840312156109575761095661084d565b5b61096160806108bf565b90505f610970848285016108f8565b5f830152506020610983848285016108f8565b6020830152506040610997848285016108f8565b60408301525060606109ab8482850161092e565b60608301525092915050565b5f608082840312156109cc576109cb610683565b5b5f6109d984828501610942565b91505092915050565b5f82825260208201905092915050565b7f4d6573736167652053656e64657220646f6573206e6f742068617665206163635f8201527f65737320746f20746869732077616c6c6574206163636f756e74000000000000602082015250565b5f610a4c603a836109e2565b9150610a57826109f2565b604082019050919050565b5f6020820190508181035f830152610a7981610a40565b9050919050565b5f81519050919050565b5f81905092915050565b8281835e5f83830152505050565b5f610aac82610a80565b610ab68185610a8a565b9350610ac6818560208601610a94565b80840191505092915050565b5f610add8284610aa2565b915081905092915050565b7f57726f6e67207369676e61747572652e204163636573732064656e696564202d5f8201527f2041757468656e7469636174696f6e204661696c656400000000000000000000602082015250565b5f610b426036836109e2565b9150610b4d82610ae8565b604082019050919050565b5f6020820190508181035f830152610b6f81610b36565b9050919050565b5f81519050919050565b5f81905092915050565b5f610b9482610b76565b610b9e8185610b80565b9350610bae818560208601610a94565b80840191505092915050565b5f819050919050565b610bd4610bcf826108d9565b610bba565b82525050565b5f610be58285610b8a565b9150610bf18284610bc3565b6020820191508190509392505050565b610c0a816108d9565b82525050565b610c198161090c565b82525050565b5f608082019050610c325f830187610c01565b610c3f6020830186610c10565b610c4c6040830185610c01565b610c596060830184610c01565b95945050505050565b7f4e487b71000000000000000000000000000000000000000000000000000000005f52601260045260245ffdfea26469706673582212208fb2ba69335a5e642784e8821ecf6e7fc19f1c67bc95a4e7d4a73aac96e392d964736f6c634300081c0033",
  "linkReferences": {},
  "deployedLinkReferences": {},
  "immutableReferences": {},
  "inputSourceName": "project/contracts/accesssimple.sol",
  "buildInfoId": "solc-0_8_28-29ee5ca40e898b6e5cffbe30d9308f9381306b53"
}