{
  "_format": "hh3-artifact-1",
  "contractName": "GavinToken",
  "sourceName": "contracts/nftsimple.sol",
  "abi": [
    {
      "inputs": [
        {
          "internalType": "address",
          "name": "initialOwner",
          "type": "address"
        }
      ],
      "stateMutability": "nonpayable",
      "type": "constructor"
    },
    {
      "inputs": [
        {
          "internalType": "address",
          "name": "sender",
          "type": "address"
        },
        {
          "internalType": "uint256",
          "name": "tokenId",
          "type": "uint256"
        },
        {
          "internalType": "address",
          "name": "owner",
          "type": "address"
        }
      ],
      "name": "ERC721IncorrectOwner",
      "type": "error"
    },
    {
      "inputs": [
        {
          "internalType": "address",
          "name": "operator",
          "type": "address"
        },
        {
          "internalType": "uint256",
          "name": "tokenId",
          "type": "uint256"
        }
      ],
      "name": "ERC721InsufficientApproval",
      "type": "error"
    },
    {
      "inputs": [
        {
          "internalType": "address",
          "name": "approver",
          "type": "address"
        }
      ],
      "name": "ERC721InvalidApprover",
      "type": "error"
    },
    {
      "inputs": [
        {
          "internalType": "address",
          "name": "operator",
          "type": "address"
        }
      ],
      "name": "ERC721InvalidOperator",
      "type": "error"
    },
    {
      "inputs": [
        {
          "internalType": "address",
          "name": "owner",
          "type": "address"
        }
      ],
      "name": "ERC721InvalidOwner",
      "type": "error"
    },
    {
      "inputs": [
        {
          "internalType": "address",
          "name": "receiver",
          "type": "address"
        }
      ],
      "name": "ERC721InvalidReceiver",
      "type": "error"
    },
    {
      "inputs": [
        {
          "internalType": "address",
          "name": "sender",
          "type": "address"
        }
      ],
      "name": "ERC721InvalidSender",
      "type": "error"
    },
    {
      "inputs": [
        {
          "internalType": "uint256",
          "name": "tokenId",
          "type": "uint256"
        }
      ],
      "name": "ERC721NonexistentToken",
      "type": "error"
    },
    {
      "inputs": [
        {
          "internalType": "address",
          "name": "owner",
          "type": "address"
        }
      ],
      "name": "OwnableInvalidOwner",
      "type": "error"
    },
    {
      "inputs": [
        {
          "internalType": "address",
          "name": "account",
          "type": "address"
        }
      ],
      "name": "OwnableUnauthorizedAccount",
      "type": "error"
    },
    {
      "anonymous": false,
      "inputs": [
        {
          "indexed": true,
          "internalType": "address",
          "name": "owner",
          "type": "address"
        },
        {
          "indexed": true,
          "internalType": "address",
          "name": "approved",
          "type": "address"
        },
        {
          "indexed": true,
          "internalType": "uint256",
          "name": "tokenId",
          "type": "uint256"
        }
      ],
      "name": "Approval",
      "type": "event"
    },
    {
      "anonymous": false,
      "inputs": [
        {
          "indexed": true,
          "internalType": "address",
          "name": "owner",
          "type": "address"
        },
        {
          "indexed": true,
          "internalType": "address",
          "name": "operator",
          "type": "address"
        },
        {
          "indexed": false,
          "internalType": "bool",
          "name": "approved",
          "type": "bool"
        }
      ],
      "name": "ApprovalForAll",
      "type": "event"
    },
    {
      "anonymous": false,
      "inputs": [
        {
          "indexed": false,
          "internalType": "uint256",
          "name": "_fromTokenId",
          "type": "uint256"
        },
        {
          "indexed": false,
          "internalType": "uint256",
          "name": "_toTokenId",
          "type": "uint256"
        }
      ],
      "name": "BatchMetadataUpdate",
      "type": "event"
    },
    {
      "anonymous": false,
      "inputs": [
        {
          "indexed": false,
          "internalType": "uint256",
          "name": "_tokenId",
          "type": "uint256"
        }
      ],
      "name": "MetadataUpdate",
      "type": "event"
    },
    {
      "anonymous": false,
      "inputs": [
        {
          "indexed": true,
          "internalType": "address",
          "name": "previousOwner",
          "type": "address"
        },
        {
          "indexed": true,
          "internalType": "address",
          "name": "newOwner",
          "type": "address"
        }
      ],
      "name": "OwnershipTransferred",
      "type": "event"
    },
    {
      "anonymous": false,
      "inputs": [
        {
          "indexed": true,
          "internalType": "address",
          "name": "from",
          "type": "address"
        },
        {
          "indexed": true,
          "internalType": "address",
          "name": "to",
          "type": "address"
        },
        {
          "indexed": true,
          "internalType": "uint256",
          "name": "tokenId",
          "type": "uint256"
        }
      ],
      "name": "Transfer",
      "type": "event"
    },
    {
      "inputs": [
        {
          "internalType": "address",
          "name": "to",
          "type": "address"
        },
        {
          "internalType": "uint256",
          "name": "tokenId",
          "type": "uint256"
        }
      ],
      "name": "approve",
      "outputs": [],
      "stateMutability": "nonpayable",
      "type": "function"
    },
    {
      "inputs": [
        {
          "internalType": "address",
          "name": "owner",
          "type": "address"
        }
      ],
      "name": "balanceOf",
      "outputs": [
        {
          "internalType": "uint256",
          "name": "",
          "type": "uint256"
        }
      ],
      "stateMutability": "view",
      "type": "function"
    },
    {
      "inputs": [
        {
          "internalType": "uint256",
          "name": "tokenId",
          "type": "uint256"
        }
      ],
      "name": "burn",
      "outputs": [],
      "stateMutability": "nonpayable",
      "type": "function"
    },
    {
      "inputs": [
        {
          "internalType": "uint256",
          "name": "tokenId",
          "type": "uint256"
        }
      ],
      "name": "getApproved",
      "outputs": [
        {
          "internalType": "address",
          "name": "",
          "type": "address"
        }
      ],
      "stateMutability": "view",
      "type": "function"
    },
    {
      "inputs": [
        {
          "internalType": "address",
          "name": "owner",
          "type": "address"
        },
        {
          "internalType": "address",
          "name": "operator",
          "type": "address"
        }
      ],
      "name": "isApprovedForAll",
      "outputs": [
        {
          "internalType": "bool",
          "name": "",
          "type": "bool"
        }
      ],
      "stateMutability": "view",
      "type": "function"
    },
    {
      "inputs": [],
      "name": "issuer",
      "outputs": [
        {
          "internalType": "address",
          "name": "",
          "type": "address"
        }
      ],
      "stateMutability": "view",
      "type": "function"
    },
    {
      "inputs": [],
      "name": "name",
      "outputs": [
        {
          "internalType": "string",
          "name": "",
          "type": "string"
        }
      ],
      "stateMutability": "view",
      "type": "function"
    },
    {
      "inputs": [],
      "name": "owner",
      "outputs": [
        {
          "internalType": "address",
          "name": "",
          "type": "address"
        }
      ],
      "stateMutability": "view",
      "type": "function"
    },
    {
      "inputs": [
        {
          "internalType": "uint256",
          "name": "tokenId",
          "type": "uint256"
        }
      ],
      "name": "ownerOf",
      "outputs": [
        {
          "internalType": "address",
          "name": "",
          "type": "address"
        }
      ],
      "stateMutability": "view",
      "type": "function"
    },
    {
      "inputs": [],
      "name": "renounceOwnership",
      "outputs": [],
      "stateMutability": "nonpayable",
      "type": "function"
    },
    {
      "inputs": [
        {
          "internalType": "address",
          "name": "to",
          "type": "address"
        },
        {
          "internalType": "string",
          "name": "uri",
          "type": "string"
        }
      ],
      "name": "safeMint",
      "outputs": [
        {
          "internalType": "uint256",
          "name": "",
          "type": "uint256"
        }
      ],
      "stateMutability": "nonpayable",
      "type": "function"
    },
    {
      "inputs": [
        {
          "internalType": "address",
          "name": "from",
          "type": "address"
        },
        {
          "internalType": "address",
          "name": "to",
          "type": "address"
        },
        {
          "internalType": "uint256",
          "name": "tokenId",
          "type": "uint256"
        }
      ],
      "name": "safeTransferFrom",
      "outputs": [],
      "stateMutability": "nonpayable",
      "type": "function"
    },
    {
      "inputs": [
        {
          "internalType": "address",
          "name": "from",
          "type": "address"
        },
        {
          "internalType": "address",
          "name": "to",
          "type": "address"
        },
        {
          "internalType": "uint256",
          "name": "tokenId",
          "type": "uint256"
        },
        {
          "internalType": "bytes",
          "name": "data",
          "type": "bytes"
        }
      ],
      "name": "safeTransferFrom",
      "outputs": [],
      "stateMutability": "nonpayable",
      "type": "function"
    },
    {
      "inputs": [
        {
          "internalType": "address",
          "name": "operator",
          "type": "address"
        },
        {
          "internalType": "bool",
          "name": "approved",
          "type": "bool"
        }
      ],
      "name": "setApprovalForAll",
      "outputs": [],
      "stateMutability": "nonpayable",
      "type": "function"
    },
    {
      "inputs": [
        {
          "internalType": "bytes4",
          "name": "interfaceId",
          "type": "bytes4"
        }
      ],
      "name": "supportsInterface",
      "outputs": [
        {
          "internalType": "bool",
          "name": "",
          "type": "bool"
        }
      ],
      "stateMutability": "view",
      "type": "function"
    },
    {
      "inputs": [],
      "name": "symbol",
      "outputs": [
        {
          "internalType": "string",
          "name": "",
          "type": "string"
        }
      ],
      "stateMutability": "view",
      "type": "function"
    },
    {
      "inputs": [
        {
          "internalType": "uint256",
          "name": "tokenId",
          "type": "uint256"
        }
      ],
      "name": "tokenURI",
      "outputs": [
        {
          "internalType": "string",
          "name": "",
          "type": "string"
        }
      ],
      "stateMutability": "view",
      "type": "function"
    },
    {
      "inputs": [
        {
          "internalType": "address",
          "name": "_from",
          "type": "address"
        },
        {
          "internalType": "address",
          "name": "_to",
          "type": "address"
        },
        {
          "internalType": "uint256",
          "name": "_tokenId",
          "type": "uint256"
        }
      ],
      "name": "transferFrom",
      "outputs": [],
      "stateMutability": "nonpayable",
      "type": "function"
    },
    {
      "inputs": [
        {
          "internalType": "address",
          "name": "newOwner",
          "type": "address"
        }
      ],
      "name": "transferOwnership",
      "outputs": [],
      "stateMutability": "nonpayable",
      "type": "function"
    }
  ],
  "bytecode": "0x608060405234801561000f575f5ffd5b50604051612e1a380380612e1a833981810160405281019061003191906102a6565b806040518060400160405280600881526020017f4e4654474156494e0000000000000000000000000000000000000000000000008152506040518060400160405280600381526020017f47564e0000000000000000000000000000000000000000000000000000000000815250815f90816100ac919061050e565b5080600190816100bc919061050e565b5050505f73ffffffffffffffffffffffffffffffffffffffff168173ffffffffffffffffffffffffffffffffffffffff160361012f575f6040517f1e4fbdf700000000000000000000000000000000000000000000000000000000815260040161012691906105ec565b60405180910390fd5b61013e8161018560201b60201c565b503360095f6101000a81548173ffffffffffffffffffffffffffffffffffffffff021916908373ffffffffffffffffffffffffffffffffffffffff16021790555050610605565b5f60075f9054906101000a900473ffffffffffffffffffffffffffffffffffffffff1690508160075f6101000a81548173ffffffffffffffffffffffffffffffffffffffff021916908373ffffffffffffffffffffffffffffffffffffffff1602179055508173ffffffffffffffffffffffffffffffffffffffff168173ffffffffffffffffffffffffffffffffffffffff167f8be0079c531659141344cd1fd0a4f28419497f9722a3daafe3b4186f6b6457e060405160405180910390a35050565b5f5ffd5b5f73ffffffffffffffffffffffffffffffffffffffff82169050919050565b5f6102758261024c565b9050919050565b6102858161026b565b811461028f575f5ffd5b50565b5f815190506102a08161027c565b92915050565b5f602082840312156102bb576102ba610248565b5b5f6102c884828501610292565b91505092915050565b5f81519050919050565b7f4e487b71000000000000000000000000000000000000000000000000000000005f52604160045260245ffd5b7f4e487b71000000000000000000000000000000000000000000000000000000005f52602260045260245ffd5b5f600282049050600182168061034c57607f821691505b60208210810361035f5761035e610308565b5b50919050565b5f819050815f5260205f209050919050565b5f6020601f8301049050919050565b5f82821b905092915050565b5f600883026103c17fffffffffffffffffffffffffffffffffffffffffffffffffffffffffffffffff82610386565b6103cb8683610386565b95508019841693508086168417925050509392505050565b5f819050919050565b5f819050919050565b5f61040f61040a610405846103e3565b6103ec565b6103e3565b9050919050565b5f819050919050565b610428836103f5565b61043c61043482610416565b848454610392565b825550505050565b5f5f905090565b610453610444565b61045e81848461041f565b505050565b5b81811015610481576104765f8261044b565b600181019050610464565b5050565b601f8211156104c65761049781610365565b6104a084610377565b810160208510156104af578190505b6104c36104bb85610377565b830182610463565b50505b505050565b5f82821c905092915050565b5f6104e65f19846008026104cb565b1980831691505092915050565b5f6104fe83836104d7565b9150826002028217905092915050565b610517826102d1565b67ffffffffffffffff8111156105305761052f6102db565b5b61053a8254610335565b610545828285610485565b5f60209050601f831160018114610576575f8415610564578287015190505b61056e85826104f3565b8655506105d5565b601f19841661058486610365565b5f5b828110156105ab57848901518255600182019150602085019450602081019050610586565b868310156105c857848901516105c4601f8916826104d7565b8355505b6001600288020188555050505b505050505050565b6105e68161026b565b82525050565b5f6020820190506105ff5f8301846105dd565b92915050565b612808806106125f395ff3fe608060405234801561000f575f5ffd5b506004361061011f575f3560e01c806370a08231116100ab578063b88d4fde1161006f578063b88d4fde146102f1578063c87b56dd1461030d578063d204c45e1461033d578063e985e9c51461036d578063f2fde38b1461039d5761011f565b806370a082311461025f578063715018a61461028f5780638da5cb5b1461029957806395d89b41146102b7578063a22cb465146102d55761011f565b80631d143848116100f25780631d143848146101bd57806323b872dd146101db57806342842e0e146101f757806342966c68146102135780636352211e1461022f5761011f565b806301ffc9a71461012357806306fdde0314610153578063081812fc14610171578063095ea7b3146101a1575b5f5ffd5b61013d60048036038101906101389190611c70565b6103b9565b60405161014a9190611cb5565b60405180910390f35b61015b6103ca565b6040516101689190611d3e565b60405180910390f35b61018b60048036038101906101869190611d91565b610459565b6040516101989190611dfb565b60405180910390f35b6101bb60048036038101906101b69190611e3e565b610474565b005b6101c561048a565b6040516101d29190611dfb565b60405180910390f35b6101f560048036038101906101f09190611e7c565b6104af565b005b610211600480360381019061020c9190611e7c565b61063c565b005b61022d60048036038101906102289190611d91565b61065b565b005b61024960048036038101906102449190611d91565b6106c1565b6040516102569190611dfb565b60405180910390f35b61027960048036038101906102749190611ecc565b6106d2565b6040516102869190611f06565b60405180910390f35b610297610788565b005b6102a161079b565b6040516102ae9190611dfb565b60405180910390f35b6102bf6107c3565b6040516102cc9190611d3e565b60405180910390f35b6102ef60048036038101906102ea9190611f49565b610853565b005b61030b600480360381019061030691906120b3565b610869565b005b61032760048036038101906103229190611d91565b61088e565b6040516103349190611d3e565b60405180910390f35b610357600480360381019061035291906121d1565b6108a0565b6040516103649190611f06565b60405180910390f35b6103876004803603810190610382919061222b565b6108e0565b6040516103949190611cb5565b60405180910390f35b6103b760048036038101906103b29190611ecc565b61096e565b005b5f6103c3826109f2565b9050919050565b60605f80546103d890612296565b80601f016020809104026020016040519081016040528092919081815260200182805461040490612296565b801561044f5780601f106104265761010080835404028352916020019161044f565b820191905f5260205f20905b81548152906001019060200180831161043257829003601f168201915b5050505050905090565b5f61046382610a52565b5061046d82610ad8565b9050919050565b6104868282610481610b11565b610b18565b5050565b60095f9054906101000a900473ffffffffffffffffffffffffffffffffffffffff1681565b3360095f9054906101000a900473ffffffffffffffffffffffffffffffffffffffff1673ffffffffffffffffffffffffffffffffffffffff168173ffffffffffffffffffffffffffffffffffffffff1614610508575f5ffd5b5f73ffffffffffffffffffffffffffffffffffffffff168473ffffffffffffffffffffffffffffffffffffffff16148061056d57505f73ffffffffffffffffffffffffffffffffffffffff168373ffffffffffffffffffffffffffffffffffffffff16145b6105ac576040517f08c379a00000000000000000000000000000000000000000000000000000000081526004016105a390612310565b60405180910390fd5b5f6105bf84846105ba610b11565b610b2a565b90508473ffffffffffffffffffffffffffffffffffffffff168173ffffffffffffffffffffffffffffffffffffffff1614610635578483826040517f64283d7b00000000000000000000000000000000000000000000000000000000815260040161062c9392919061232e565b60405180910390fd5b5050505050565b61065683838360405180602001604052805f815250610869565b505050565b3360095f9054906101000a900473ffffffffffffffffffffffffffffffffffffffff1673ffffffffffffffffffffffffffffffffffffffff168173ffffffffffffffffffffffffffffffffffffffff16146106b4575f5ffd5b6106bd82610d35565b5050565b5f6106cb82610a52565b9050919050565b5f5f73ffffffffffffffffffffffffffffffffffffffff168273ffffffffffffffffffffffffffffffffffffffff1603610743575f6040517f89c62b6400000000000000000000000000000000000000000000000000000000815260040161073a9190611dfb565b60405180910390fd5b60035f8373ffffffffffffffffffffffffffffffffffffffff1673ffffffffffffffffffffffffffffffffffffffff1681526020019081526020015f20549050919050565b610790610db7565b6107995f610e3e565b565b5f60075f9054906101000a900473ffffffffffffffffffffffffffffffffffffffff16905090565b6060600180546107d290612296565b80601f01602080910402602001604051908101604052809291908181526020018280546107fe90612296565b80156108495780601f1061082057610100808354040283529160200191610849565b820191905f5260205f20905b81548152906001019060200180831161082c57829003601f168201915b5050505050905090565b61086561085e610b11565b8383610f01565b5050565b6108748484846104af565b61088861087f610b11565b8585858561106a565b50505050565b606061089982611216565b9050919050565b5f6108a9610db7565b5f60085f8154809291906108bc90612390565b9190505590506108cc8482611321565b6108d6818461133e565b8091505092915050565b5f60055f8473ffffffffffffffffffffffffffffffffffffffff1673ffffffffffffffffffffffffffffffffffffffff1681526020019081526020015f205f8373ffffffffffffffffffffffffffffffffffffffff1673ffffffffffffffffffffffffffffffffffffffff1681526020019081526020015f205f9054906101000a900460ff16905092915050565b610976610db7565b5f73ffffffffffffffffffffffffffffffffffffffff168173ffffffffffffffffffffffffffffffffffffffff16036109e6575f6040517f1e4fbdf70000000000000000000000000000000000000000000000000000000081526004016109dd9190611dfb565b60405180910390fd5b6109ef81610e3e565b50565b5f634906490660e01b7bffffffffffffffffffffffffffffffffffffffffffffffffffffffff1916827bffffffffffffffffffffffffffffffffffffffffffffffffffffffff19161480610a4b5750610a4a82611398565b5b9050919050565b5f5f610a5d83611479565b90505f73ffffffffffffffffffffffffffffffffffffffff168173ffffffffffffffffffffffffffffffffffffffff1603610acf57826040517f7e273289000000000000000000000000000000000000000000000000000000008152600401610ac69190611f06565b60405180910390fd5b80915050919050565b5f60045f8381526020019081526020015f205f9054906101000a900473ffffffffffffffffffffffffffffffffffffffff169050919050565b5f33905090565b610b2583838360016114b2565b505050565b5f5f610b3584611479565b90505f73ffffffffffffffffffffffffffffffffffffffff168373ffffffffffffffffffffffffffffffffffffffff1614610b7657610b75818486611671565b5b5f73ffffffffffffffffffffffffffffffffffffffff168173ffffffffffffffffffffffffffffffffffffffff1614610c0157610bb55f855f5f6114b2565b600160035f8373ffffffffffffffffffffffffffffffffffffffff1673ffffffffffffffffffffffffffffffffffffffff1681526020019081526020015f205f82825403925050819055505b5f73ffffffffffffffffffffffffffffffffffffffff168573ffffffffffffffffffffffffffffffffffffffff1614610c8057600160035f8773ffffffffffffffffffffffffffffffffffffffff1673ffffffffffffffffffffffffffffffffffffffff1681526020019081526020015f205f82825401925050819055505b8460025f8681526020019081526020015f205f6101000a81548173ffffffffffffffffffffffffffffffffffffffff021916908373ffffffffffffffffffffffffffffffffffffffff160217905550838573ffffffffffffffffffffffffffffffffffffffff168273ffffffffffffffffffffffffffffffffffffffff167fddf252ad1be2c89b69c2b068fc378daa952ba7f163c4a11628f55a4df523b3ef60405160405180910390a4809150509392505050565b5f610d415f835f610b2a565b90505f73ffffffffffffffffffffffffffffffffffffffff168173ffffffffffffffffffffffffffffffffffffffff1603610db357816040517f7e273289000000000000000000000000000000000000000000000000000000008152600401610daa9190611f06565b60405180910390fd5b5050565b610dbf610b11565b73ffffffffffffffffffffffffffffffffffffffff16610ddd61079b565b73ffffffffffffffffffffffffffffffffffffffff1614610e3c57610e00610b11565b6040517f118cdaa7000000000000000000000000000000000000000000000000000000008152600401610e339190611dfb565b60405180910390fd5b565b5f60075f9054906101000a900473ffffffffffffffffffffffffffffffffffffffff1690508160075f6101000a81548173ffffffffffffffffffffffffffffffffffffffff021916908373ffffffffffffffffffffffffffffffffffffffff1602179055508173ffffffffffffffffffffffffffffffffffffffff168173ffffffffffffffffffffffffffffffffffffffff167f8be0079c531659141344cd1fd0a4f28419497f9722a3daafe3b4186f6b6457e060405160405180910390a35050565b5f73ffffffffffffffffffffffffffffffffffffffff168273ffffffffffffffffffffffffffffffffffffffff1603610f7157816040517f5b08ba18000000000000000000000000000000000000000000000000000000008152600401610f689190611dfb565b60405180910390fd5b8060055f8573ffffffffffffffffffffffffffffffffffffffff1673ffffffffffffffffffffffffffffffffffffffff1681526020019081526020015f205f8473ffffffffffffffffffffffffffffffffffffffff1673ffffffffffffffffffffffffffffffffffffffff1681526020019081526020015f205f6101000a81548160ff0219169083151502179055508173ffffffffffffffffffffffffffffffffffffffff168373ffffffffffffffffffffffffffffffffffffffff167f17307eab39ab6107e8899845ad3d59bd9653f200f220920489ca2b5937696c318360405161105d9190611cb5565b60405180910390a3505050565b5f8373ffffffffffffffffffffffffffffffffffffffff163b111561120f578273ffffffffffffffffffffffffffffffffffffffff1663150b7a02868685856040518563ffffffff1660e01b81526004016110c89493929190612429565b6020604051808303815f875af192505050801561110357506040513d601f19601f820116820180604052508101906111009190612487565b60015b611184573d805f8114611131576040519150601f19603f3d011682016040523d82523d5f602084013e611136565b606091505b505f81510361117c57836040517f64a0ae920000000000000000000000000000000000000000000000000000000081526004016111739190611dfb565b60405180910390fd5b805160208201fd5b63150b7a0260e01b7bffffffffffffffffffffffffffffffffffffffffffffffffffffffff1916817bffffffffffffffffffffffffffffffffffffffffffffffffffffffff19161461120d57836040517f64a0ae920000000000000000000000000000000000000000000000000000000081526004016112049190611dfb565b60405180910390fd5b505b5050505050565b606061122182610a52565b505f60065f8481526020019081526020015f20805461123f90612296565b80601f016020809104026020016040519081016040528092919081815260200182805461126b90612296565b80156112b65780601f1061128d576101008083540402835291602001916112b6565b820191905f5260205f20905b81548152906001019060200180831161129957829003601f168201915b505050505090505f6112c6611734565b90505f8151036112da57819250505061131c565b5f8251111561130e5780826040516020016112f69291906124ec565b6040516020818303038152906040529250505061131c565b6113178461174a565b925050505b919050565b61133a828260405180602001604052805f8152506117b0565b5050565b8060065f8481526020019081526020015f20908161135c91906126af565b507ff8e1a15aba9398e019f0b49df1a4fde98ee17ae345cb5f6b5e2c27f5033e8ce78260405161138c9190611f06565b60405180910390a15050565b5f7f80ac58cd000000000000000000000000000000000000000000000000000000007bffffffffffffffffffffffffffffffffffffffffffffffffffffffff1916827bffffffffffffffffffffffffffffffffffffffffffffffffffffffff1916148061146257507f5b5e139f000000000000000000000000000000000000000000000000000000007bffffffffffffffffffffffffffffffffffffffffffffffffffffffff1916827bffffffffffffffffffffffffffffffffffffffffffffffffffffffff1916145b806114725750611471826117d3565b5b9050919050565b5f60025f8381526020019081526020015f205f9054906101000a900473ffffffffffffffffffffffffffffffffffffffff169050919050565b80806114ea57505f73ffffffffffffffffffffffffffffffffffffffff168273ffffffffffffffffffffffffffffffffffffffff1614155b1561161c575f6114f984610a52565b90505f73ffffffffffffffffffffffffffffffffffffffff168373ffffffffffffffffffffffffffffffffffffffff161415801561156357508273ffffffffffffffffffffffffffffffffffffffff168173ffffffffffffffffffffffffffffffffffffffff1614155b8015611576575061157481846108e0565b155b156115b857826040517fa9fbf51f0000000000000000000000000000000000000000000000000000000081526004016115af9190611dfb565b60405180910390fd5b811561161a57838573ffffffffffffffffffffffffffffffffffffffff168273ffffffffffffffffffffffffffffffffffffffff167f8c5be1e5ebec7d5bd14f71427d1e84f3dd0314c0f7b2291e5b200ac8c7c3b92560405160405180910390a45b505b8360045f8581526020019081526020015f205f6101000a81548173ffffffffffffffffffffffffffffffffffffffff021916908373ffffffffffffffffffffffffffffffffffffffff16021790555050505050565b61167c83838361183c565b61172f575f73ffffffffffffffffffffffffffffffffffffffff168373ffffffffffffffffffffffffffffffffffffffff16036116f057806040517f7e2732890000000000000000000000000000000000000000000000000000000081526004016116e79190611f06565b60405180910390fd5b81816040517f177e802f00000000000000000000000000000000000000000000000000000000815260040161172692919061277e565b60405180910390fd5b505050565b606060405180602001604052805f815250905090565b606061175582610a52565b505f61175f611734565b90505f81511161177d5760405180602001604052805f8152506117a8565b80611787846118fc565b6040516020016117989291906124ec565b6040516020818303038152906040525b915050919050565b6117ba83836119c6565b6117ce6117c5610b11565b5f85858561106a565b505050565b5f7f01ffc9a7000000000000000000000000000000000000000000000000000000007bffffffffffffffffffffffffffffffffffffffffffffffffffffffff1916827bffffffffffffffffffffffffffffffffffffffffffffffffffffffff1916149050919050565b5f5f73ffffffffffffffffffffffffffffffffffffffff168373ffffffffffffffffffffffffffffffffffffffff16141580156118f357508273ffffffffffffffffffffffffffffffffffffffff168473ffffffffffffffffffffffffffffffffffffffff1614806118b457506118b384846108e0565b5b806118f257508273ffffffffffffffffffffffffffffffffffffffff166118da83610ad8565b73ffffffffffffffffffffffffffffffffffffffff16145b5b90509392505050565b60605f600161190a84611ab9565b0190505f8167ffffffffffffffff81111561192857611927611f8f565b5b6040519080825280601f01601f19166020018201604052801561195a5781602001600182028036833780820191505090505b5090505f82602083010190505b6001156119bb578080600190039150507f3031323334353637383961626364656600000000000000000000000000000000600a86061a8153600a85816119b0576119af6127a5565b5b0494505f8503611967575b819350505050919050565b5f73ffffffffffffffffffffffffffffffffffffffff168273ffffffffffffffffffffffffffffffffffffffff1603611a36575f6040517f64a0ae92000000000000000000000000000000000000000000000000000000008152600401611a2d9190611dfb565b60405180910390fd5b5f611a4283835f610b2a565b90505f73ffffffffffffffffffffffffffffffffffffffff168173ffffffffffffffffffffffffffffffffffffffff1614611ab4575f6040517f73c6ac6e000000000000000000000000000000000000000000000000000000008152600401611aab9190611dfb565b60405180910390fd5b505050565b5f5f5f90507a184f03e93ff9f4daa797ed6e38ed64bf6a1f0100000000000000008310611b15577a184f03e93ff9f4daa797ed6e38ed64bf6a1f0100000000000000008381611b0b57611b0a6127a5565b5b0492506040810190505b6d04ee2d6d415b85acef81000000008310611b52576d04ee2d6d415b85acef81000000008381611b4857611b476127a5565b5b0492506020810190505b662386f26fc100008310611b8157662386f26fc100008381611b7757611b766127a5565b5b0492506010810190505b6305f5e1008310611baa576305f5e1008381611ba057611b9f6127a5565b5b0492506008810190505b6127108310611bcf576127108381611bc557611bc46127a5565b5b0492506004810190505b60648310611bf25760648381611be857611be76127a5565b5b0492506002810190505b600a8310611c01576001810190505b80915050919050565b5f604051905090565b5f5ffd5b5f5ffd5b5f7fffffffff0000000000000000000000000000000000000000000000000000000082169050919050565b611c4f81611c1b565b8114611c59575f5ffd5b50565b5f81359050611c6a81611c46565b92915050565b5f60208284031215611c8557611c84611c13565b5b5f611c9284828501611c5c565b91505092915050565b5f8115159050919050565b611caf81611c9b565b82525050565b5f602082019050611cc85f830184611ca6565b92915050565b5f81519050919050565b5f82825260208201905092915050565b8281835e5f83830152505050565b5f601f19601f8301169050919050565b5f611d1082611cce565b611d1a8185611cd8565b9350611d2a818560208601611ce8565b611d3381611cf6565b840191505092915050565b5f6020820190508181035f830152611d568184611d06565b905092915050565b5f819050919050565b611d7081611d5e565b8114611d7a575f5ffd5b50565b5f81359050611d8b81611d67565b92915050565b5f60208284031215611da657611da5611c13565b5b5f611db384828501611d7d565b91505092915050565b5f73ffffffffffffffffffffffffffffffffffffffff82169050919050565b5f611de582611dbc565b9050919050565b611df581611ddb565b82525050565b5f602082019050611e0e5f830184611dec565b92915050565b611e1d81611ddb565b8114611e27575f5ffd5b50565b5f81359050611e3881611e14565b92915050565b5f5f60408385031215611e5457611e53611c13565b5b5f611e6185828601611e2a565b9250506020611e7285828601611d7d565b9150509250929050565b5f5f5f60608486031215611e9357611e92611c13565b5b5f611ea086828701611e2a565b9350506020611eb186828701611e2a565b9250506040611ec286828701611d7d565b9150509250925092565b5f60208284031215611ee157611ee0611c13565b5b5f611eee84828501611e2a565b91505092915050565b611f0081611d5e565b82525050565b5f602082019050611f195f830184611ef7565b92915050565b611f2881611c9b565b8114611f32575f5ffd5b50565b5f81359050611f4381611f1f565b92915050565b5f5f60408385031215611f5f57611f5e611c13565b5b5f611f6c85828601611e2a565b9250506020611f7d85828601611f35565b9150509250929050565b5f5ffd5b5f5ffd5b7f4e487b71000000000000000000000000000000000000000000000000000000005f52604160045260245ffd5b611fc582611cf6565b810181811067ffffffffffffffff82111715611fe457611fe3611f8f565b5b80604052505050565b5f611ff6611c0a565b90506120028282611fbc565b919050565b5f67ffffffffffffffff82111561202157612020611f8f565b5b61202a82611cf6565b9050602081019050919050565b828183375f83830152505050565b5f61205761205284612007565b611fed565b90508281526020810184848401111561207357612072611f8b565b5b61207e848285612037565b509392505050565b5f82601f83011261209a57612099611f87565b5b81356120aa848260208601612045565b91505092915050565b5f5f5f5f608085870312156120cb576120ca611c13565b5b5f6120d887828801611e2a565b94505060206120e987828801611e2a565b93505060406120fa87828801611d7d565b925050606085013567ffffffffffffffff81111561211b5761211a611c17565b5b61212787828801612086565b91505092959194509250565b5f67ffffffffffffffff82111561214d5761214c611f8f565b5b61215682611cf6565b9050602081019050919050565b5f61217561217084612133565b611fed565b90508281526020810184848401111561219157612190611f8b565b5b61219c848285612037565b509392505050565b5f82601f8301126121b8576121b7611f87565b5b81356121c8848260208601612163565b91505092915050565b5f5f604083850312156121e7576121e6611c13565b5b5f6121f485828601611e2a565b925050602083013567ffffffffffffffff81111561221557612214611c17565b5b612221858286016121a4565b9150509250929050565b5f5f6040838503121561224157612240611c13565b5b5f61224e85828601611e2a565b925050602061225f85828601611e2a565b9150509250929050565b7f4e487b71000000000000000000000000000000000000000000000000000000005f52602260045260245ffd5b5f60028204905060018216806122ad57607f821691505b6020821081036122c0576122bf612269565b5b50919050565b7f546f6b656e206e6f74207472616e7366657261626c65000000000000000000005f82015250565b5f6122fa601683611cd8565b9150612305826122c6565b602082019050919050565b5f6020820190508181035f830152612327816122ee565b9050919050565b5f6060820190506123415f830186611dec565b61234e6020830185611ef7565b61235b6040830184611dec565b949350505050565b7f4e487b71000000000000000000000000000000000000000000000000000000005f52601160045260245ffd5b5f61239a82611d5e565b91507fffffffffffffffffffffffffffffffffffffffffffffffffffffffffffffffff82036123cc576123cb612363565b5b600182019050919050565b5f81519050919050565b5f82825260208201905092915050565b5f6123fb826123d7565b61240581856123e1565b9350612415818560208601611ce8565b61241e81611cf6565b840191505092915050565b5f60808201905061243c5f830187611dec565b6124496020830186611dec565b6124566040830185611ef7565b818103606083015261246881846123f1565b905095945050505050565b5f8151905061248181611c46565b92915050565b5f6020828403121561249c5761249b611c13565b5b5f6124a984828501612473565b91505092915050565b5f81905092915050565b5f6124c682611cce565b6124d081856124b2565b93506124e0818560208601611ce8565b80840191505092915050565b5f6124f782856124bc565b915061250382846124bc565b91508190509392505050565b5f819050815f5260205f209050919050565b5f6020601f8301049050919050565b5f82821b905092915050565b5f6008830261256b7fffffffffffffffffffffffffffffffffffffffffffffffffffffffffffffffff82612530565b6125758683612530565b95508019841693508086168417925050509392505050565b5f819050919050565b5f6125b06125ab6125a684611d5e565b61258d565b611d5e565b9050919050565b5f819050919050565b6125c983612596565b6125dd6125d5826125b7565b84845461253c565b825550505050565b5f5f905090565b6125f46125e5565b6125ff8184846125c0565b505050565b5b81811015612622576126175f826125ec565b600181019050612605565b5050565b601f821115612667576126388161250f565b61264184612521565b81016020851015612650578190505b61266461265c85612521565b830182612604565b50505b505050565b5f82821c905092915050565b5f6126875f198460080261266c565b1980831691505092915050565b5f61269f8383612678565b9150826002028217905092915050565b6126b882611cce565b67ffffffffffffffff8111156126d1576126d0611f8f565b5b6126db8254612296565b6126e6828285612626565b5f60209050601f831160018114612717575f8415612705578287015190505b61270f8582612694565b865550612776565b601f1984166127258661250f565b5f5b8281101561274c57848901518255600182019150602085019450602081019050612727565b868310156127695784890151612765601f891682612678565b8355505b6001600288020188555050505b505050505050565b5f6040820190506127915f830185611dec565b61279e6020830184611ef7565b9392505050565b7f4e487b71000000000000000000000000000000000000000000000000000000005f52601260045260245ffdfea2646970667358221220f32e187b9846ad22020436e9f25fbba8c5117da96014c57a904cf6ade7c2688264736f6c634300081c0033",
  "linkReferences": {},
  "deployedLinkReferences": {},
  "immutableReferences": {},
  "inputSourceName": "project/contracts/nftsimple.sol",
  "buildInfoId": "solc-0_8_28-29ee5ca40e898b6e5cffbe30d9308f9381306b53"
}